02000011111111     PACSTREAM    080904BISACPOA19629         0012222222          
1100002000000001962919629        2222222     1111111     080904         
40000030000000019629000000000107112260670000100000000000000000  000000000101    9780711226067
40000040000000019629000000000207148483010000400000000000000000  000000000401    9780714848303
40000050000000019629000000000307459426440000100000000000000000  000000000101    9780745942643
40000060000000019629000000000407459466310000600000000000000000  000000000007    9780745946634
40000070000000019629000000000507459493040000200000000000000000  000000000201    9780745949307
40000080000000019629000000000607459493550000200000000000000000  000000000007    9780745949352
40000090000000019629000000000707459493630000100000000000000000  000000000007    9780745949369
40000100000000019629000000000807459496650000100000000000000000  000000000101    9780745949666
40000110000000019629000000000907459496810000100000000000000000  000000000007    9780745949680
40000120000000019629000000001007459497970000300000000000000000  000000000301    9780745949796
40000130000000019629000000001107459499670000300000000000000000  000000000301    9780745949963
40000140000000019629000000001207459522240000100000000000000000  000000000101    9780745952222
40000150000000019629000000001307459523480000200000000000000000  000000000007    9780745952345
400001600000000196290000000014074595278X0000100000000000000000  000000000101    9780745952789
40000170000000019629000000001507459531900000100000000000000000  000000000105    9780745953199
40000180000000019629000000001607459600490000200000000000000000  000000000201    9780745960043
400001900000000196290000000017074596012X0000200000000000000000  000000000007    9780745960128
40000200000000019629000000001807459601620000700000000000000000  000000000701    9780745960166
40000210000000019629000000001907459607070000100000000000000000  000000000101    9780745960708
40000220000000019629000000002007459608470000200000000000000000  000000000201    9780745960845
40000230000000019629000000002107459608630000500000000000000000  000000000110    9780745960869
40000240000000019629000000002207459609520000100000000000000000  000000000007    9780745960951
40000250000000019629000000002307459610450000600000000000000000  000000000605    9780745961040
40000260000000019629000000002407459610530000200000000000000000  000000000201    9780745961057
40000270000000019629000000002507459610880000500000000000000000  000000000501    9780745961088
40000280000000019629000000002607459612230000700000000000000000  000000001409    9780745961224
40000290000000019629000000002707459690460000400000000000000000  000000000007    9780745969046
40000300000000019629000000002807624166960000200000000000000000  000000000201    9780762416691
40000310000000019629000000002908979349380000200000000000000000  000000000201    9780897934930
40000320000000019629000000003015925825400000700000000000000000  000000000701    9781592582549
40000330000000019629000000003118453930070000400000000000000000  000000000401    9781845393007
400003400000000196290000000032184666411X0000100000000000000000  000000000101    9781846664113
40000350000000019629000000003318516848240000600000000000000000  000000000007    9781851684823
40000360000000019629000000003418542483400000100000000000000000  000000000007    9781854248343
400003700000000196290000000035185424874X0000100000000000000000  000000000116    9781854248749
40000380000000019629000000003618589426160000200000000000000000  000000000007    9781858942612
40000390000000019629000000003718589426240000200000000000000000  000000000007    9781858942629
400004000000000196290000000038185985334X0000600000000000000000  000000000007    9781859853344
40000410000000019629000000003918598549310000200000000000000000  000000000201    9781859854938
40000420000000019629000000004018598552450000100000000000000000  000000000007    9781859855249
40000430000000019629000000004118598562760000500000000000000000  000000000007    9781859856277
40000440000000019629000000004218598562840000500000000000000000  000000000007    9781859856284
40000450000000019629000000004318598563060000100000000000000000  000000000101    9781859856307
40000460000000019629000000004418598563220000300000000000000000  000000000301    9781859856321
40000470000000019629000000004518598566320000200000000000000000  000000000007    9781859856635
40000480000000019629000000004618598566400000200000000000000000  000000000007    9781859856642
400004900000000196290000000047185985673X0000300000000000000000  000000000301    9781859856734
40000500000000019629000000004818598569690000100000000000000000  000000000007    9781859856963
40000510000000019629000000004918598576120000100000000000000000  000000000007    9781859857618
40000520000000019629000000005018598576710000900000000000000000  000000000905    9781859857670
400005300000000196290000000051185985768X0001100000000000000000  000000001105    9781859857687
40000540000000019629000000005218942229620000400000000000000000  000000000008    9781894222969
40000550000000019629000000005319052793450000100000000000000000  000000000007    9781905279340
590005600000000196290005500000000530000000104                                   
9100057000000000005300001000000010400001000010000000000000530000100001          
