**HEADER**060221SAND      9012982     00000100**PUBSTAT*002                                                                                                                                                                                                         
07152006151NNBNGODS YOUNG CHURCH PB          NBarclay, W                    NAN2272   N      NSAND      NSTANP         N   N  N  N000N0000000N000000N   NO/ON      N          N999999NNONN        N                                        N0N0N0000000N000000000000
07152013011NNBNFIRST COMMUNION BOOK          NGoold, James G                NAN407    N      NSAND      NSTANP         N   N  N  N000N0000000N000000N   NO/ON      N          N999999NNONN        N                                        N0N0N0000000N000000000000
07152019721NNBNOLD LAW AND THE NEW LAW PB    NBarclay, W                    NAN2272   N      NSAND      NSTANP         N   N  N  N000N0000000N000000N   NO/ON      N          N999999NNONN        N                                        N0N0N0000000N000000000000
07152042031NNBNMAKING OF THE BIBLE THE       NBarclay, W                    NAN2272   N      NSAND      NSTANP         N   N  N  N000N0000000N000000N   NO/ON      N          N999999NNONN        N                                        N0N0N0000000N000000000000
07152049551NNBNFASTI VOL 10 HB               N                              NAN9750   N      NSAND      NSTANP         N   N  N  N000N0000000N000000N   NO/ON      N          N999999NNONN        N                                        N0N0N0000000N000000000000
07152060791NNBNBRIDGING THE GAP PB           NHarvey, John                  NAN0      N      NSAND      NSTANP         N   N  N  N000N0000000N000000N   NO/ON      N          N999999NNONN        N                                        N0N0N0000000N000000000000
07152063031NNBNTALKS FOR CHILDREN PB         NSurtees/MacLeod               NAN2438   N      NSAND      NSTANP         N   N  N  N000N0000000N000000N   NO/ON      N          N999999NNONN        N                                        N0N0N0000000N000000000000
07152065241NNBNSACRED STONES SACRED PLACES HBNLines, Marianna               NAN7147   N      NSAND      NSTANP         N   N  N  N000N0000000N000000N   NO/ON      N          N999999NNONN        N                                        N0N0N0000000N000000000000
07152065831NNBNELDER CHARACTER AND DUTIES PB NMacdonald, W C                NAN407    N      NSAND      NSTANP         N   N  N  N000N0000000N000000N   NO/ON      N          N999999NNONN        N                                        N0N0N0000000N000000000000
071520663X1NNBNJOHN KNOX                     NSefton, Henry R               NAN2272   N      NSAND      NSTANP         N   N  N  N000N0000000N000000N   NO/ON      N          N999999NNONN        N                                        N0N0N0000000N000000000000
07152066991NNBNBEGINNERS GUIDE TO THE NT     NBarclay, W                    NAN2272   N      NSAND      NSTANP         N   N  N  N000N0000000N000000N   NO/ON      N          N999999NNONN        N                                        N0N0N0000000N000000000000
07152067611NNBNELDER AND THE SACRAMENTS PB   NAnderson, David               NAN407    N      NSAND      NSTANP         N   N  N  N000N0000000N000000N   NO/ON      N          N999999NNONN        N                                        N0N0N0000000N000000000000
07152067961NNBNUNFINISHED AGENDA             NNewbigin, Lesslie             NAN4547   N      NSAND      NSTANP         N   N  N  N000N0000000N000000N   NO/ON      N          N999999NNONN        N                                        N0N0N0000000N000000000000
07152068181NNBNWRESTLE FIGHT AND PRAY PB     NBell, John L                  NAN2597   N      NSAND      NSTANP         N   N  N  N000N0000000N000000N   NO/ON      N          N999999NNONN        N                                        N0N0N0000000N000000000000
07152068771NNBNTALES TO TELL 2 PB            N                              NAN975    N      NSAND      NSTANP         N   N  N  N000N0000000N000000N   NO/ON      N          N999999NNONN        N                                        N0N0N0000000N000000000000
07152069151NNBNAULD TESTAMENT TALES PB       N                              NAN0      N      NSAND      NSTANP         N   N  N  N000N0000000N000000N   NO/ON      N          N999999NNONN        N                                        N0N0N0000000N000000000000
07152069231NNBNALPHABET OF BARCLAY PB        NBarclay, R                    NAN2922   N      NSAND      NSTANP         N   N  N  N000N0000000N000000N   NO/ON      N          N999999NNONN        N                                        N0N0N0000000N000000000000
07152069311NNBNBOOK OF SAINTS A PB           NNicol, Stewart H.             NAN2272   N      NSAND      NSTANP         N   N  N  N000N0000000N000000N   NO/ON      N          N999999NNONN        N                                        N0N0N0000000N000000000000
07152070401NNBNWORD IN SEASON A              NNewbigin, Lesslie             NAN4547   N      NSAND      NSTANP         N   N  N  N000N0000000N000000N   NO/ON      N          N999999NNONN        N                                        N0N0N0000000N000000000000
07152070671NNBNLEADING GODS PEOPLE           N                              NAN2259   N      NSAND      NSTANP         N   N  N  N000N0000000N000000N   NO/ON      N          N999999NNONN        N                                        N0N0N0000000N000000000000
07152070831NNBNSCOTTISH KEERIOSITIES         N                              NAN1463   N      NSAND      NSTANP         N   N  N  N000N0000000N000000N   NO/ON      N          N999999NNONN        N                                        N0N0N0000000N000000000000
07152070911NNBNMORE SCOTTISH KEERIOSITIES    NHenderson, Robert             NAN1463   N      NSAND      NSTANP         N   N  N  N000N0000000N000000N   NO/ON      N          N999999NNONN        N                                        N0N0N0000000N000000000000
07152071051NNBNGO BY THE BOOK                NDavidson, Robert              NAN2597   N      NSAND      NSTANP         N   N  N  N000N0000000N000000N   NO/ON      N          N999999NNONN        N                                        N0N0N0000000N000000000000
071520713X1NNBNLINDISFARNE LANDSCAPES        NMackay, Sheila                NAN2597   N      NSAND      NSTANP         N   N  N  N000N0000000N000000N   NO/ON      N          N999999NNONN        N                                        N0N0N0000000N000000000000
07152071481NNBNSCOTTISH ANIMAL BIRD FOLKLORE NArchibald, Malcolm            NAN2597   N      NSAND      NSTANP         N   N  N  N000N0000000N000000N   NO/ON      N          N999999NNONN        N                                        N0N0N0000000N000000000000
07152071641NNBNIN LOVE AND IN LAUGHTER PB    N                              NAN3088   N      NSAND      NSTANP         N   N  N  N000N0000000N000000N   NO/ON      N          N999999NNONN        N                                        N0N0N0000000N000000000000
07152071801NNBNJOHN AND DONALD BAILLIE SELECTNFergusson, David              NAN2597   N      NSAND      NSTANP         N   N  N  N000N0000000N000000N   NO/ON      N          N999999NNONN        N                                        N0N0N0000000N000000000000
07152071991NNBNEDWARD IRVING PB              NMcFarlane, Graham             NAN2272   N      NSAND      NSTANP         N   N  N  N000N0000000N000000N   NO/ON      N          N999999NNONN        N                                        N0N0N0000000N000000000000
07152072021NNBNGEORGE MACDONALD SELECTED WRITNDeddo/Deddo (eds)             NAN2272   N      NSAND      NSTANP         N   N  N  N000N0000000N000000N   NO/ON      N          N999999NNONN        N                                        N0N0N0000000N000000000000
07152072961NNBNOUR CELTIC HERITAGE PB        NKing, Chris                   NAN2597   N      NSAND      NSTANP         N   N  N  N000N0000000N000000N   NO/ON      N          N999999NNONN        N                                        N0N0N0000000N000000000000
07152074901NNBNGLASGOW BIBLE PB              NStuart, Jamie                 NAN2597   N      NSAND      NSTANP         N   N  N  N000N0000000N000000N   NO/ON      N          N999999NNONN        N                                        N0N0N0000000N000000000000
07152075201NNBNSUNSHINE THROUGH SHADOWS PB   NNoble, Alex B                 NAN2597   N      NSAND      NSTANP         N   N  N  N000N0000000N000000N   NO/ON      N          N999999NNONN        N                                        N0N0N0000000N000000000000
07152075391NNBNCOMMON GROUND MUSIC SPIRAL BOUNPanel on Worship              NAN6013   N      NSAND      NSTANP         N   N  N  N000N0000000N000000N   NO/ON      N          N999999NNONN        N                                        N0N0N0000000N000000000000
07152075471NNBNCOMMON GROUND WORDS PB        NPanel on Worship              NAN1622   N      NSAND      NSTANP         N   N  N  N000N0000000N000000N   NO/ON      N          N999999NNONN        N                                        N0N0N0000000N000000000000
07152075551NNBNNEW BEGINNINGS PB             NMaitland, James               NAN2922   N      NSAND      NSTANP         N   N  N  N000N0000000N000000N   NO/ON      N          N999999NNONN        N                                        N0N0N0000000N000000000000
07152075711NNBNVIEWS FROM EARTH              NMonaghan, A                   NAN1297   N      NSAND      NSTANP         N   N  N  N000N0000000N000000N   NO/ON      N          N999999NNONN        N                                        N0N0N0000000N000000000000
07152075981NNBNBEYOND FEAR PB                NMorton, A R (ed)              NAN3247   N      NSAND      NSTANP         N   N  N  N000N0000000N000000N   NO/ON      N          N999999NNONN        N                                        N0N0N0000000N000000000000
07152076011NNBNPREACHING THROUGH THE YEAR PB NSteel, David                  NAN3897   N      NSAND      NSTANP         N   N  N  N000N0000000N000000N   NO/ON      N          N999999NNONN        N                                        N0N0N0000000N000000000000
07152076281NNBNSALTED WITH FIRE PB           NFraser, Ian M                 NAN2922   N      NSAND      NSTANP         N   N  N  N000N0000000N000000N   NO/ON      N          N999999NNONN        N                                        N0N0N0000000N000000000000
07152076361NNBNLAUGH SHALL BE FIRST THE PB   NSimpson, James A              NAN2597   N      NSAND      NSTANP         N   N  N  N000N0000000N000000N   NO/ON      N          N999999NNONN        N                                        N0N0N0000000N000000000000
07152076441NNBNTRANSFORMATIONAL MINISTRY PB  NJinkins, Michael              NAN2922   N      NSAND      NSTANP         N   N  N  N000N0000000N000000N   NO/ON      N          N999999NNONN        N                                        N0N0N0000000N000000000000
07152076521NNBNCHRISTIAN PRAYER FOR TODAY PB NWhaling, Frank                NAN2597   N      NSAND      NSTANP         N   N  N  N000N0000000N000000N   NO/ON      N          N999999NNONN        N                                        N0N0N0000000N000000000000
07152076871NNBNABERDEEN AND THE HIGHLAND CHURNMacDonald, Ian R              NAN4547   N      NSAND      NSTANP         N   N  N  N000N0000000N000000N   NO/ON      N          N999999NNONN        N                                        N0N0N0000000N000000000000
07152076951NNBNWALKING IN DARKNESS AND LIGHT NGalloway, Kathy               NAN2597   N      NSAND      NSTANP         N   N  N  N000N0000000N000000N   NO/ON      N          N999999NNONN        N                                        N0N0N0000000N000000000000
07152077171NNBNGOSPEL WOVEN IN WORDS PB      NRobertson, Jenny              NAN1622   N      NSAND      NSTANP         N   N  N  N000N0000000N000000N   NO/ON      N          N999999NNONN        N                                        N0N0N0000000N000000000000
07152077251NNBNKIRK LORE PB                  NHerron, Andrew                NAN2597   N      NSAND      NSTANP         N   N  N  N000N0000000N000000N   NO/ON      N          N999999NNONN        N                                        N0N0N0000000N000000000000
07152077331NNBNCARING FOR PLANET EARTH PB    NFraser, Ian M                 NAN2272   N      NSAND      NSTANP         N   N  N  N000N0000000N000000N   NO/ON      N          N999999NNONN        N                                        N0N0N0000000N000000000000
07152077411NNBNCHRISTMAS ABC PB              NForsyth/Griffiths             NAN2113   N      NSAND      NSTANP         N   N  N  N000N0000000N000000N   NO/ON      N          N999999NNONN        N                                        N0N0N0000000N000000000000
07152077761NNBNDREAM AND THE GRACE PB        NWhyte, James A                NAN2597   N      NSAND      NSTANP         N   N  N  N000N0000000N000000N   NO/ON      N          N999999NNONN        N                                        N0N0N0000000N000000000000
07152077841NNBNIONA POEMS PB                 NSteven, Kenneth               NAN1622   N      NSAND      NSTANP         N   N  N  N000N0000000N000000N   NO/ON      N          N999999NNONN        N                                        N0N0N0000000N000000000000
07152078061NNBNGOSPEL OF MATTHEW VOL 1       NBarclay, William              NAN2922   N      NSAND      NSTANP         N   N  N  N000N0000000N000000N   NO/ON      N          N999999NNONN        N                                        N0N0N0000000N000000000000
07152078141NNBNGOSPEL OF MATTHEW VOL 2       NBarclay, William              NAN2922   N      NSAND      NSTANP         N   N  N  N000N0000000N000000N   NO/ON      N          N999999NNONN        N                                        N0N0N0000000N000000000000
07152078221NNBNGOSPEL OF MARK                NBarclay, William              NAN2922   N      NSAND      NSTANP         N   N  N  N000N0000000N000000N   NO/ON      N          N999999NNONN        N                                        N0N0N0000000N000000000000
07152078301NNBNGOSPEL OF LUKE                NBarclay, William              NAN2922   N      NSAND      NSTANP         N   N  N  N000N0000000N000000N   NO/ON      N          N999999NNONN        N                                        N0N0N0000000N000000000000
07152078491NNBNGOSPEL OF JOHN VOL 1          NBarclay, William              NAN2922   N      NSAND      NSTANP         N   N  N  N000N0000000N000000N   NO/ON      N          N999999NNONN        N                                        N0N0N0000000N000000000000
07152078571NNBNGOSPEL OF JOHN VOL 2          NBarclay, William              NAN2922   N      NSAND      NSTANP         N   N  N  N000N0000000N000000N   NO/ON      N          N999999NNONN        N                                        N0N0N0000000N000000000000
07152078651NNBNACTS PB                       NBarclay, William              NAN2922   N      NSAND      NSTANP         N   N  N  N000N0000000N000000N   NO/ON      N          N999999NNONN        N                                        N0N0N0000000N000000000000
07152078731NNBNLETTERS TO THE ROMANS PB      NBarclay, William              NAN2922   N      NSAND      NSTANP         N   N  N  N000N0000000N000000N   NO/ON      N          N999999NNONN        N                                        N0N0N0000000N000000000000
07152078811NNBNLETTERS TO THE CORINTHIANS PB NBarclay, William              NAN2922   N      NSAND      NSTANP         N   N  N  N000N0000000N000000N   NO/ON      N          N999999NNONN        N                                        N0N0N0000000N000000000000
071520789X1NNBNGALATIANS AND EPHESIANS PB    NBarclay, William              NAN2922   N      NSAND      NSTANP         N   N  N  N000N0000000N000000N   NO/ON      N          N999999NNONN        N                                        N0N0N0000000N000000000000
071520792X1NNBNLETTERS TO THE HEBREWS PB     NBarclay, William              NAN2922   N      NSAND      NSTANP         N   N  N  N000N0000000N000000N   NO/ON      N          N999999NNONN        N                                        N0N0N0000000N000000000000
07152079701NNBNGENTLE AND PASSIONATE PB      NMcLellan, Andrew              NAN2597   N      NSAND      NSTANP         N   N  N  N000N0000000N000000N   NO/ON      N          N999999NNONN        N                                        N0N0N0000000N000000000000
07152079891NNBNWILD HORSES PB                NSteven, Kenneth               NAN2597   N      NSAND      NSTANP         N   N  N  N000N0000000N000000N   NO/ON      N          N999999NNONN        N                                        N0N0N0000000N000000000000
07152079971NNBNOUTSIDE VERDICT PB            NReid, Harry                   NAN4222   N      NSAND      NSTANP         N   N  N  N000N0000000N000000N   NO/ON      N          N999999NNONN        N                                        N0N0N0000000N000000000000
07152080041NNBNTOUCH AND GO PB               NForrester, Margaret           NAN2597   N      NSAND      NSTANP         N   N  N  N000N0000000N000000N   NO/ON      N          N999999NNONN        N                                        N0N0N0000000N000000000000
07152080121NNBNGLIMPSES OF HOPE PB           NMcKay, Johnston               NAN2597   N      NSAND      NSTANP         N   N  N  N000N0000000N000000N   NO/ON      N          N999999NNONN        N                                        N0N0N0000000N000000000000
07152080201NNBNREFLECTIONS ON THE BEATITUDES NMiller, John                  NAN1297   N      NSAND      NSTANP         N   N  N  N000N0000000N000000N   NO/ON      N          N999999NNONN        N                                        N0N0N0000000N000000000000
07152080391NNBNGOD IN SOCIETY PB             NStorrar/Brown (eds)           NAN5847   N      NSAND      NSTANP         N   N  N  N000N0000000N000000N   NO/ON      N          N999999NNONN        N                                        N0N0N0000000N000000000000
07152080471NNBNNOTES ON SCHUBERT PB          NWilson, Conrad                NAN2922   N      NSAND      NSTANP         N   N  N  N000N0000000N000000N   NO/ON      N          N999999NNONN        N                                        N0N0N0000000N000000000000
07152080551NNBNROOT OF ALL EVIL PB           NSwinson, Antonia              NAN2597   N      NSAND      NSTANP         N   N  N  N000N0000000N000000N   NO/ON      N          N999999NNONN        N                                        N0N0N0000000N000000000000
07152080631NNBNSPEEDBUMPS AND POTHOLES PB    NBaines, Nick                  NAN2922   N      NSAND      NSTANP         N   N  N  N000N0000000N000000N   NO/ON      N          N999999NNONN        N                                        N0N0N0000000N000000000000
07152080711NNBNNOTES ON MOZART PB            NWilson, Conrad                NAN2922   N      NSAND      NSTANP         N   N  N  N000N0000000N000000N   NO/ON      N          N999999NNONN        N                                        N0N0N0000000N000000000000
071520808X1NNBNNOTES ON BEETHOVEN PB         NWilson, Conrad                NAN2922   N      NSAND      NSTANP         N   N  N  N000N0000000N000000N   NO/ON      N          N999999NNONN        N                                        N0N0N0000000N000000000000
07152080981NNBNSWORD AND THE CROSS THE HB    NHolloway, Richard (Intro)     NAN6497   N      NSAND      NSTANP         N   N  N  N000N0000000N000000N   NO/ON      N          N999999NNONN        N                                        N0N0N0000000N000000000000
07152081011NNBNHONOURING CHILDREN PB         NMarshall/Parvis               NAN5847   N      NSAND      NSTANP         N   N  N  N000N0000000N000000N   NO/ON      N          N999999NNONN        N                                        N0N0N0000000N000000000000
071520811X1NNBNSCOTS AT SEA HB               NHewitson, Jim (Comp) BBC ScotlNAN6497   N      NSAND      NSTANP         N   N  N  N000N0000000N000000N   NO/ON      N          N999999NNONN        N                                        N0N0N0000000N000000000000
07152081281NNBNCONFIDENCE IN A CHANGING CHURCNMacdonald, Finlay A J         NAN2922   N      NSAND      NSTANP         N   N  N  N000N0000000N000000N   NO/ON      N          N999999NNONN        N                                        N0N0N0000000N000000000000
07152081361NNBNNEW DSB GOSPELS 6 VOL SET PB  NBarclay, William              NAN14609  N      NSAND      NSTANP         N   N  N  N000N0000000N000000N   NO/ON      N          N999999NNONN        N                                        N0N0N0000000N000000000000
07152081441NNBNHONOURING CHILDREN STUDY GUIDENMarshall/Parvis               NAN1297   N      NSAND      NSTANP         N   N  N  N000N0000000N000000N   NO/ON      N          N999999NNONN        N                                        N0N0N0000000N000000000000
07152081521NNBNSILENT HEROES PB              NMiller, John (comp)           NAN2922   N      NSAND      NSTANP         N   N  N  N000N0000000N000000N   NO/ON      N          N999999NNONN        N                                        N0N0N0000000N000000000000
07152081601NNBNNEW DSB SET 17 VOLS PB        NBarclay, William              NAN40625  N      NSAND      NSTANP         N   N  N  N000N0000000N000000N   NO/ON      N          N999999NNONN        N                                        N0N0N0000000N000000000000
07152081791NNBNNOTES ON BACH PB              NWilson, Conrad                NAN2922   N      NSAND      NSTANP         N   N  N  N000N0000000N000000N   NO/ON      N          N999999NNONN        N                                        N0N0N0000000N000000000000
07152081871NNBNNOTES ON MENDELSOHN PB        NWilson, Conrad                NAN2922   N      NSAND      NSTANP         N   N  N  N000N0000000N000000N   NO/ON      N          N999999NNONN        N                                        N0N0N0000000N000000000000
07152081951NNBNNOTES ON BRAHMS PB            NWilson, Conrad                NAN2922   N      NSAND      NSTANP         N   N  N  N000N0000000N000000N   NO/ON      N          N999999NNONN        N                                        N0N0N0000000N000000000000
07152082091NNBNJESUS AND PEOPLE LIKE US PB   NBaines, Nick                  NAN2922   N      NSAND      NSTANP         N   N  N  N000N0000000N000000N   NO/ON      N          N999999NNONN        N                                        N0N0N0000000N000000000000
07152082171NNBNNETTING CITIZENS PB           NMcKay, Johnston (Ed)          NAN5847   N      NSAND      NSTANP         N   N  N  N000N0000000N000000N   NO/ON      N          N999999NNONN        N                                        N0N0N0000000N000000000000
07152082251NNBNCOLUMBA POEMS PB              NSteven, Kenneth               NAN2597   N      NSAND      NSTANP         N   N  N  N000N0000000N000000N   NO/ON      N          N999999NNONN        N                                        N0N0N0000000N000000000000
07152082411NNBNTIME FOR TRUMPETS PB          NBlackie, Nansie (Ed)          NAN3247   N      NSAND      NSTANP         N   N  N  N000N0000000N000000N   NO/ON      N          N999999NNONN        N                                        N0N0N0000000N000000000000
07152082921NNBNMARKING TIME PB               NBaines, Nick                  NAN1947   N      NSAND      NSTANP         N   N  N  N000N0000000N000000N   NO/ON      N          N999999NNONN        N                                        N0N0N0000000N000000000000
07152083061NNBNCOMMON ORDER HB               NPanel on Worship              NAN6497   N      NSAND      NSTANP         N   N  N  N000N0000000N000000N   NO/ON      N          N999999NNONN        N                                        N0N0N0000000N000000000000
08615306321NNBNSCOTS CONFESSION OF 1560 PB   NBulloch, J (Trans)            NAN650    N      NSAND      NSTANP         N   N  N  N000N0000000N000000N   NO/ON      N          N999999NNONN        N                                        N0N0N0000000N000000000000
08615312801NNBNWORSHIPPING TOGETHER          N                              NAN1609   N      NSAND      NSTANP         N   N  N  N000N0000000N000000N   NO/ON      N          N999999NNONN        N                                        N0N0N0000000N000000000000
086153140X1NNBNVows of Baptism, The          NHamilton, David               NAN2113   N      NSAND      NSCOTIS        N   N  N  N000N0000000N000000N   NO/ON      N          N999999NNONN        N                                        N0N0N0000000N000000000000
08615315741NNBNFUTURE OF THE FAMILY PB       NC of S, Soc. Resp.            NAN1609   N      NSAND      NSTANP         N   N  N  N000N0000000N000000N   NO/ON      N          N999999NNONN        N                                        N0N0N0000000N000000000000
08615315821NNBNHUGH DOUGLAS ONE MANS MINISTRYN                              NAN4209   N      NSAND      NSTANP         N   N  N  N000N0000000N000000N   NO/ON      N          N999999NNONN        N                                        N0N0N0000000N000000000000
08615316981NNBNHEAT AND LIGHT ENERGY CONSERVAN                              NAN325    N      NSAND      NSTANP         N   N  N  N000N0000000N000000N   NO/ON      N          N999999NNONN        N                                        N0N0N0000000N000000000000
08615317281NNBNDHARMA INDIA AND THE WORLD ORDN                              NAN3234   N      NSAND      NSTANP         N   N  N  N000N0000000N000000N   NO/ON      N          N999999NNONN        N                                        N0N0N0000000N000000000000
08615317791NNBNPRESBYTERY THEOLOGY AND PART DN                              NAN634    N      NSAND      NSTANP         N   N  N  N000N0000000N000000N   NO/ON      N          N999999NNONN        N                                        N0N0N0000000N000000000000
08615319811NNBNTECHNOLOGY AT THE CROSSROADS  N                              NAN0      N      NSAND      NSTANP         N   N  N  N000N0000000N000000N   NO/ON      N          N999999NNONN        N                                        N0N0N0000000N000000000000
086153204X1NNBNEUTHANASIA A CHRISTIAN PERSPECNC of S, Soc. Resp.            NAN1609   N      NSAND      NSTANP         N   N  N  N000N0000000N000000N   NO/ON      N          N999999NNONN        N                                        N0N0N0000000N000000000000
08615322361NNBNPRE CONCIEVED IDEAS HB        NC of S: Social Responsibility NAN1934   N      NSAND      NSTANP         N   N  N  N000N0000000N000000N   NO/ON      N          N999999NNONN        N                                        N0N0N0000000N000000000000
08615323331NNBNDOING THEOLOGY AND DEVELOPMENTNWhyte/Tiongco                 NAN3247   N      NSAND      NSTANP         N   N  N  N000N0000000N000000N   NO/ON      N          N999999NNONN        N                                        N0N0N0000000N000000000000
08615324141NNBNBCP ORDER CHRISTIAN MARRIAGE  NPanel on Worship              NAN488    N      NSAND      NSTANP         N   N  N  N000N0000000N000000N   NO/ON      N          N999999NNONN        N                                        N0N0N0000000N000000000000
08615324221NNBNCOMMON ORDER SERVICES LECTIONANPanel on Worship              NAN972    N      NSAND      NSTANP         N   N  N  N000N0000000N000000N   NO/ON      N          N999999NNONN        N                                        N0N0N0000000N000000000000
08615324301NNBNC O SERVICES FUNERAL          NPanel on Worship              NAN1297   N      NSAND      NSTANP         N   N  N  N000N0000000N000000N   NO/ON      N          N999999NNONN        N                                        N0N0N0000000N000000000000
08615325381NNBNCaring for God's People BookleNSteven, Sheilah               NAN647    N      NSAND      NSCOTIS        N   N  N  N000N0000000N000000N   NO/ON      N          N999999NNONN        N                                        N0N0N0000000N000000000000
08615325701NNBNGOOD NEWS FOR A CHANGE PB     NC of S, Nat/World Mission     NAN1138   N      NSAND      NSTANP         N   N  N  N000N0000000N000000N   NO/ON      N          N999999NNONN        N                                        N0N0N0000000N000000000000
08615326431NNBNTOURS THROUGH COMMON GROUND PBNPanel on Worship              NAN813    N      NSAND      NSTANP         N   N  N  N000N0000000N000000N   NO/ON      N          N999999NNONN        N                                        N0N0N0000000N000000000000
08615326511NNBNIN PURSUIT OF A VISION PB     NLyon, David H S               NAN3247   N      NSAND      NSTANP         N   N  N  N000N0000000N000000N   NO/ON      N          N999999NNONN        N                                        N0N0N0000000N000000000000
08615326941NNBNHEALTH AND HEALING PB         NC of S, Soc. Resp.            NAN813    N      NSAND      NSTANP         N   N  N  N000N0000000N000000N   NO/ON      N          N999999NNONN        N                                        N0N0N0000000N000000000000
08615327751NNBNWhy Me? Booklet               NSteven, Sheilah               NAN972    N      NSAND      NSCOTIS        N   N  N  N000N0000000N000000N   NO/ON      N          N999999NNONN        N                                        N0N0N0000000N000000000000
08615327831NNBNGet a Grip : Hands on ChristiaNMallon/Cutler/Galvin          NAN2597   N      NSAND      NSCOTIS        N   N  N  N000N0000000N000000N   NO/ON      N          N999999NNONN        N                                        N0N0N0000000N000000000000
08615327911NNBNCovenant, The : (Music Book) :NWhyte, Iain                   NAN1950   N      NSAND      NSCOTIS        N   N  N  N000N0000000N000000N   NO/ON      N          N999999NNONN        N                                        N0N0N0000000N000000000000
08615328051NNBNCovenant, The (Words)         NWhyte, Iain                   NAN488    N      NSAND      NSCOTIS        N   N  N  N000N0000000N000000N   NO/ON      N          N999999NNONN        N                                        N0N0N0000000N000000000000
08615329021NNBNMAY YOU LIVE TO BE 120 PB     N                              NAN0      N      NSAND      NSTANP         N   N  N  N000N0000000N000000N   NO/ON      N          N999999NNONN        N                                        N0N0N0000000N000000000000
08615329291NNBNCV SCOTLAND 2000 PB           N                              NAN1788   N      NSAND      NSTANP         N   N  N  N000N0000000N000000N   NO/ON      N          N999999NNONN        N                                        N0N0N0000000N000000000000
08615329371NNBNIn the Beginning : A Children'Nvan Pelt/de Fluiter           NAN3247   N      NSAND      NSCOTIS        N   N  N  N000N0000000N000000N   NO/ON      N          N999999NNONN        N                                        N0N0N0000000N000000000000
08615329531NNBNReport on Interpretation of ScNC of S Panel on Doctrine      NAN1947   N      NSAND      NSCOTIS        N   N  N  N000N0000000N000000N   NO/ON      N          N999999NNONN        N                                        N0N0N0000000N000000000000
08615329611NNBNInterpreting Scripture        NGalbraith/Clark               NAN1622   N      NSAND      NSCOTIS        N   N  N  N000N0000000N000000N   NO/ON      N          N999999NNONN        N                                        N0N0N0000000N000000000000
086153297X1NNBNMOVING WITH CHRIST IN MISSION NRoss/Grant/Wood               NAN488    N      NSAND      NSTANP         N   N  N  N000N0000000N000000N   NO/ON      N          N999999NNONN        N                                        N0N0N0000000N000000000000
08615330031NNBNSing Me a Song of Christmas (WNWhyte, Iain                   NAN488    N      NSAND      NSCOTIS        N   N  N  N000N0000000N000000N   NO/ON      N          N999999NNONN        N                                        N0N0N0000000N000000000000
08615330111NNBNSing Me A Song of Christmas (MNWhyte, Iain                   NAN1950   N      NSAND      NSCOTIS        N   N  N  N000N0000000N000000N   NO/ON      N          N999999NNONN        N                                        N0N0N0000000N000000000000
08615330541NNBNBIO ETHICS FOR THE NEW MILLENNNC of S Soc. Resp.             NAN2584   N      NSAND      NSTANP         N   N  N  N000N0000000N000000N   NO/ON      N          N999999NNONN        N                                        N0N0N0000000N000000000000
08615331001NNBNLAW AND CHRISTIAN ETHICS HB   NC of S, Soc. Resp.            NAN1934   N      NSAND      NSTANP         N   N  N  N000N0000000N000000N   NO/ON      N          N999999NNONN        N                                        N0N0N0000000N000000000000
08615332081NNBNCOMMON ORDER SERVICES BAPTISM NPanel on Worship              NAN488    N      NSAND      NSTANP         N   N  N  N000N0000000N000000N   NO/ON      N          N999999NNONN        N                                        N0N0N0000000N000000000000
08615332321NNBNBANNERS 2000 HB               NC of S Guild                  NAN2925   N      NSAND      NSTANP         N   N  N  N000N0000000N000000N   NO/ON      N          N999999NNONN        N                                        N0N0N0000000N000000000000
08615332671NNBNLet there be Light : Music BooNWhyte, Iain                   NAN1950   N      NSAND      NSCOTIS        N   N  N  N000N0000000N000000N   NO/ON      N          N999999NNONN        N                                        N0N0N0000000N000000000000
08615332751NNBNChurch without Walls :Working NBrown, Susan M                NAN972    N      NSAND      NSCOTIS        N   N  N  N000N0000000N000000N   NO/ON      N          N999999NNONN        N                                        N0N0N0000000N000000000000
08615332831NNBNChurch Without Walls : Report NMaclean, Marjorie (Preface)   NAN1297   N      NSAND      NSCOTIS        N   N  N  N000N0000000N000000N   NO/ON      N          N999999NNONN        N                                        N0N0N0000000N000000000000
086153333X1NNBNInspired, Alive and Under FiveNZielinski/Grant/Woods         NAN2113   N      NSAND      NSCOTIS        N   N  N  N000N0000000N000000N   NO/ON      N          N999999NNONN        N                                        N0N0N0000000N000000000000
08615333481NNBNNervous Tension               NHoward, Alan                  NAN2113   N      NSAND      NSCOTIS        N   N  N  N000N0000000N000000N   NO/ON      N          N999999NNONN        N                                        N0N0N0000000N000000000000
08615333561NNBNHoliday Time, Quality Time    NSwanney/Beautyman             NAN2113   N      NSAND      NSCOTIS        N   N  N  N000N0000000N000000N   NO/ON      N          N999999NNONN        N                                        N0N0N0000000N000000000000
08615333641NNBNGet a Grip 2                  NMallon/Galvin                 NAN2597   N      NSAND      NSCOTIS        N   N  N  N000N0000000N000000N   NO/ON      N          N999999NNONN        N                                        N0N0N0000000N000000000000
08615333721NNBNMISSION AS GODS SPIRAL OF RENENRoss, Kenneth                 NAN488    N      NSAND      NSTANP         N   N  N  N000N0000000N000000N   NO/ON      N          N999999NNONN        N                                        N0N0N0000000N000000000000
08615333801NNBNCITY SNAPS PB                 NCalvert, Robert               NAN975    N      NSAND      NSTANP         N   N  N  N000N0000000N000000N   NO/ON      N          N999999NNONN        N                                        N0N0N0000000N000000000000
08615333991NNBNFOLLOWING JESUS AND FIGHTING HNRoss, Kenneth                 NAN975    N      NSAND      NSTANP         N   N  N  N000N0000000N000000N   NO/ON      N          N999999NNONN        N                                        N0N0N0000000N000000000000
08615334021NNBNDEVOTED SERVICE RENDERED      NBardgett, Frank               NAN2438   N      NSAND      NSTANP         N   N  N  N000N0000000N000000N   NO/ON      N          N999999NNONN        N                                        N0N0N0000000N000000000000
08615335421NNBNPRAY NOW 2004 PB              NC Of S: Worship & Doctrine    NAN1138   N      NSAND      NSTANP         N   N  N  N000N0000000N000000N   NO/ON      N          N999999NNONN        N                                        N0N0N0000000N000000000000
08615336071NNBNPRAY NOW DAILY DEVOTIONS FOR 2N                              NAN1138   N      NSAND      NSTANP         N   N  N  N000N0000000N000000N   NO/ON      N          N999999NNONN        N                                        N0N0N0000000N000000000000
08615336741NNBNCHURCH OF SCOTLAND YEAR BOOK 2NBlakey, R.S. (ed)             NAN4547   N      NSAND      NSTANP         N   N  N  N000N0000000N000000N   NO/ON      N          N999999NNONN        N                                        N0N0N0000000N000000000000
08615336821NNBNPRAY NOW 2006 PB              NC Of S: Worship & Doctrine    NAN1138   N      NSAND      NSTANP         N   N  N  N000N0000000N000000N   NO/ON      N          N999999NNONN        N                                        N0N0N0000000N000000000000
19043250171NNBNRavens Tale & Other Stories   NSteven, Kenneth               NAN2272   N      NSAND      NSCOTIS        N   N  N  N000N0000000N000000N   NO/ON      N          N999999NNONN        N                                        N0N0N0000000N000000000000
19043250251NNBNTestament Tales               NStobo, Mary                   NAN1947   N      NSAND      NSCOTIS        N   N  N  N000N0000000N000000N   NO/ON      N          N999999NNONN        N                                        N0N0N0000000N000000000000
19043250331NNBNWill You Follow Me?           NFisher, Leith                 NAN3897   N      NSAND      NSCOTIS        N   N  N  N000N0000000N000000N   NO/ON      N          N999999NNONN        N                                        N0N0N0000000N000000000000
19043250411NNBNJohn Lowrie Morrison : Colour NMorrison, John Lowrie         NAN6497   N      NSAND      NSCOTIS        N   N  N  N000N0000000N000000N   NO/ON      N          N999999NNONN        N                                        N0N0N0000000N000000000000
190432505X1NNBNSexuality & Salvation         NMallon, Steve                 NAN2922   N      NSAND      NSCOTIS        N   N  N  N000N0000000N000000N   NO/ON      N          N999999NNONN        N                                        N0N0N0000000N000000000000
19043250681NNBNBreaking Down Walls           NKing, Chris                   NAN2597   N      NSAND      NSCOTIS        N   N  N  N000N0000000N000000N   NO/ON      N          N999999NNONN        N                                        N0N0N0000000N000000000000
19043250761NNBNGaun Yersel Moses             NWhite, Tom                    NAN1622   N      NSAND      NSCOTIS        N   N  N  N000N0000000N000000N   NO/ON      N          N999999NNONN        N                                        N0N0N0000000N000000000000
19043250841NNBNInside Verdict                NMallon, Steve                 NAN3247   N      NSAND      NSCOTIS        N   N  N  N000N0000000N000000N   NO/ON      N          N999999NNONN        N                                        N0N0N0000000N000000000000
19043250921NNBNHear our Voice                NSwanney, Doug                 NAN2597   N      NSAND      NSCOTIS        N   N  N  N000N0000000N000000N   NO/ON      N          N999999NNONN        N                                        N0N0N0000000N000000000000
19043251061NNBNTwo by Two : Songbook with CD NGrant/Christie                NAN3572   N      NSAND      NSCOTIS        N   N  N  N000N0000000N000000N   NO/ON      N          N999999NNONN        N                                        N0N0N0000000N000000000000
19043251141NNBNWidening Road, The            NFisher, Leith                 NAN3897   N      NSAND      NSCOTIS        N   N  N  N000N0000000N000000N   NO/ON      N          N999999NNONN        N                                        N0N0N0000000N000000000000
19043251221NNBNAdvent Adventures             NBrown, Susan M                NAN2597   N      NSAND      NSCOTIS        N   N  N  N000N0000000N000000N   NO/ON      N          N999999NNONN        N                                        N0N0N0000000N000000000000
19043251301NNBNEaster Experiences            NBrown, Susan M                NAN2597   N      NSAND      NSCOTIS        N   N  N  N000N0000000N000000N   NO/ON      N          N999999NNONN        N                                        N0N0N0000000N000000000000
19043251491NNBNFeast of Graces, A            NAitken, Douglas               NAN1622   N      NSAND      NSCOTIS        N   N  N  N000N0000000N000000N   NO/ON      N          N999999NNONN        N                                        N0N0N0000000N000000000000
19043251571NNBNParable Patter                NWhite, Tom                    NAN1622   N      NSAND      NSCOTIS        N   N  N  N000N0000000N000000N   NO/ON      N          N999999NNONN        N                                        N0N0N0000000N000000000000
19043251811NNBNPractical Caring              NSteven, Sheilah               NAN1947   N      NSAND      NSCOTIS        N   N  N  N000N0000000N000000N   NO/ON      N          N999999NNONN        N                                        N0N0N0000000N000000000000
190432519X1NNBNLords Prayer Explained by ChilNSteven, Kenneth               NAN2597   N      NSAND      NSCOTIS        N   N  N  N000N0000000N000000N   NO/ON      N          N999999NNONN        N                                        N0N0N0000000N000000000000
190432522X1NNBNVision for Volunteers         NCutler, Stewart               NAN2113   N      NSAND      NSCOTIS        N   N  N  N000N0000000N000000N   NO/ON      N          N999999NNONN        N                                        N0N0N0000000N000000000000
19043252381NNBNWays into Worship             NSwanney, Doug                 NAN2113   N      NSAND      NSCOTIS        N   N  N  N000N0000000N000000N   NO/ON      N          N999999NNONN        N                                        N0N0N0000000N000000000000
19043252461NNBNChoicesYouth : CD ROM         NMallon, Steve                 NAN6500   N      NSAND      NSCOTIS        N   N  N  N000N0000000N000000N   NO/ON      N          N999999NNONN        N                                        N0N0N0000000N000000000000
19043252541NNBNChoices for Children : CD ROM NMallon, Steve                 NAN6500   N      NSAND      NSCOTIS        N   N  N  N000N0000000N000000N   NO/ON      N          N999999NNONN        N                                        N0N0N0000000N000000000000
19043252701NNBNChrist the Servant King :DVD INBrown, Susan M                NAN3250   N      NSAND      NSCOTIS        N   N  N  N000N0000000N000000N   NO/ON      N          N999999NNONN        N                                        N0N0N0000000N000000000000
19043253191NNBNWake up to Your Dreams        NMorrison, Dr Jean C           NAN813    N      NSAND      NSCOTIS        N   N  N  N000N0000000N000000N   NO/ON      N          N999999NNONN        N                                        N0N0N0000000N000000000000
19043253351NNBNTwelve Fragments              NWilkie, George                NAN1297   N      NSAND      NSCOTIS        N   N  N  N000N0000000N000000N   NO/ON      N          N999999NNONN        N                                        N0N0N0000000N000000000000
19043253431NNBNMiraculous Everyday, The      NElliot, Alison                NAN4222   N      NSAND      NSCOTIS        N   N  N  N000N0000000N000000N   NO/ON      N          N999999NNONN        N                                        N0N0N0000000N000000000000
C001      1NNBNADMISSION TO HOLY COMMUNION CEN                              NAN520    N      NSAND      NSTANP         N   N  N  N000N0000000N000000N   NO/ON      N          N999999NNONN        N                                        N0N0N0000000N000000000000
C002      1NNBNBAPTISM DOVES CERTIFICATE     N                              NAN358    N      NSAND      NSTANP         N   N  N  N000N0000000N000000N   NO/ON      N          N999999NNONN        N                                        N0N0N0000000N000000000000
C004      1NNBNCHURCH OF SCOTLAND CERTIFICATEN                              NAN358    N      NSAND      NSTANP         N   N  N  N000N0000000N000000N   NO/ON      N          N999999NNONN        N                                        N0N0N0000000N000000000000
C005      1NNBNFIRST COMMUNION CERTIFICATE   N                              NAN358    N      NSAND      NSTANP         N   N  N  N000N0000000N000000N   NO/ON      N          N999999NNONN        N                                        N0N0N0000000N000000000000
C006      1NNBNRECOGNITION OF SERVICE CERTIFIN                              NAN439    N      NSAND      NSTANP         N   N  N  N000N0000000N000000N   NO/ON      N          N999999NNONN        N                                        N0N0N0000000N000000000000
C007      1NNBNBAPTISM CERTIFICATE           N                              NAN358    N      NSAND      NSTANP         N   N  N  N000N0000000N000000N   NO/ON      N          N999999NNONN        N                                        N0N0N0000000N000000000000
CA01      1NNBNBAPTISMAL REGISTER CASED      N                              NAN19825  N      NSAND      NSTANP         N   N  N  N000N0000000N000000N   NO/ON      N          N999999NNONN        N                                        N0N0N0000000N000000000000
CA02      1NNBNTRANSFERENCE OF MEMBERSHIP CERN                              NAN2519   N      NSAND      NSTANP         N   N  N  N000N0000000N000000N   NO/ON      N          N999999NNONN        N                                        N0N0N0000000N000000000000
CA03      1NNBNCOMMUNION CARDS (PACK 100)    N                              NAN1057   N      NSAND      NSTANP         N   N  N  N000N0000000N000000N   NO/ON      N          N999999NNONN        N                                        N0N0N0000000N000000000000
CA04      1NNBNCRADLE ROLL CERTIFICATE       N                              NAN423    N      NSAND      NSTANP         N   N  N  N000N0000000N000000N   NO/ON      N          N999999NNONN        N                                        N0N0N0000000N000000000000
CA05      1NNBNCRADLE ROLL SCROLL            N                              NAN2032   N      NSAND      NSTANP         N   N  N  N000N0000000N000000N   NO/ON      N          N999999NNONN        N                                        N0N0N0000000N000000000000
CA06      1NNBNELDERS ROLL BOOK              N                              NAN520    N      NSAND      NSTANP         N   N  N  N000N0000000N000000N   NO/ON      N          N999999NNONN        N                                        N0N0N0000000N000000000000
CA07      1NNBNOFFERING CERTIFICATE BOOK     N                              NAN2357   N      NSAND      NSTANP         N   N  N  N000N0000000N000000N   NO/ON      N          N999999NNONN        N                                        N0N0N0000000N000000000000
CA08      1NNBNORDAINED A RULING ELDER CERTIFN                              NAN504    N      NSAND      NSTANP         N   N  N  N000N0000000N000000N   NO/ON      N          N999999NNONN        N                                        N0N0N0000000N000000000000
CA09      1NNBNROLL OF COMMUNICANTS A SHEET (N                              NAN3657   N      NSAND      NSTANP         N   N  N  N000N0000000N000000N   NO/ON      N          N999999NNONN        N                                        N0N0N0000000N000000000000
CA13      1NNBNSUPPLEMENTARY ROLL BOOK CASED N                              NAN3982   N      NSAND      NSTANP         N   N  N  N000N0000000N000000N   NO/ON      N          N999999NNONN        N                                        N0N0N0000000N000000000000
CA14      1NNBNCRADLE ROLL CERTIFICATE C OF SN                              NAN390    N      NSAND      NSTANP         N   N  N  N000N0000000N000000N   NO/ON      N          N999999NNONN        N                                        N0N0N0000000N000000000000
CA15      1NNBNCRADLE ROLL SCROLL C OF S     N                              NAN1869   N      NSAND      NSTANP         N   N  N  N000N0000000N000000N   NO/ON      N          N999999NNONN        N                                        N0N0N0000000N000000000000
CV01      1NNBNCALL TO MINISTER CERTIFICATE  N                              NAN260    N      NSAND      NSTANP         N   N  N  N000N0000000N000000N   NO/ON      N          N999999NNONN        N                                        N0N0N0000000N000000000000
CV02      1NNBNCONCURRENCE IN CALL SHEET     N                              NAN260    N      NSAND      NSTANP         N   N  N  N000N0000000N000000N   NO/ON      N          N999999NNONN        N                                        N0N0N0000000N000000000000
CV03      1NNBNCALL CONTINUATION CERTIFICATE N                              NAN260    N      NSAND      NSTANP         N   N  N  N000N0000000N000000N   NO/ON      N          N999999NNONN        N                                        N0N0N0000000N000000000000
M003      1NNBNLAPEL BADGE BURNING BUSH CLIP N                              NAN260    N      NSAND      NSTANP         N   N  N  N000N0000000N000000N   NO/ON      N          N999999NNONN        N                                        N0N0N0000000N000000000000
M004      1NNBNLAPEL BADGE BURNING BUSH PIN  N                              NAN260    N      NSAND      NSTANP         N   N  N  N000N0000000N000000N   NO/ON      N          N999999NNONN        N                                        N0N0N0000000N000000000000
M005      1NNBNTIE BURNING BUSH              N                              NAN3088   N      NSAND      NSTANP         N   N  N  N000N0000000N000000N   NO/ON      N          N999999NNONN        N                                        N0N0N0000000N000000000000
M006      1NNBNTIE STRIPES                   N                              NAN3088   N      NSAND      NSTANP         N   N  N  N000N0000000N000000N   NO/ON      N          N999999NNONN        N                                        N0N0N0000000N000000000000
M007      1NNBNOPERATION WELCOME             N                              NAN6500   N      NSAND      NSTANP         N   N  N  N000N0000000N000000N   NO/ON      N          N999999NNONN        N                                        N0N0N0000000N000000000000
M008      1NNBNSTATEMENT OF CHRISTIAN FAITH (N                              NAN1707   N      NSAND      NSTANP         N   N  N  N000N0000000N000000N   NO/ON      N          N999999NNONN        N                                        N0N0N0000000N000000000000
M009      1NNBNSTATEMENT OF CHRISTIAN FAITH (N                              NAN520    N      NSAND      NSTANP         N   N  N  N000N0000000N000000N   NO/ON      N          N999999NNONN        N                                        N0N0N0000000N000000000000
M011      1NNBNCHURCH HYMNARY COVER PLASTIC  N                              NAN423    N      NSAND      NSTANP         N   N  N  N000N0000000N000000N   NO/ON      N          N999999NNONN        N                                        N0N0N0000000N000000000000
PEPVIDEO1 1NNBNWhy Me? Video                 NSteven, Sheilah               NAN3247   N      NSAND      NSCOTIS        N   N  N  N000N0000000N000000N   NO/ON      N          N999999NNONN        N                                        N0N0N0000000N000000000000
PEPVIDEO2 1NNBNCaring for God's People Video NSteven, Sheilah               NAN4547   N      NSAND      NSCOTIS        N   N  N  N000N0000000N000000N   NO/ON      N          N999999NNONN        N                                        N0N0N0000000N000000000000
S003      1NNBNCOMMUNION GLASSES (PACK 13)   N                              NAN5850   N      NSAND      NSTANP         N   N  N  N000N0000000N000000N   NO/ON      N          N999999NNONN        N                                        N0N0N0000000N000000000000
S004      1NNBNFIRST COMMUNION LANDSCAPE A6  N                              NAN195    N      NSAND      NSTANP         N   N  N  N000N0000000N000000N   NO/ON      N          N999999NNONN        N                                        N0N0N0000000N000000000000
S005      1NNBNJUNIOR CHURCH ATTENDANCE CARDSN                              NAN455    N      NSAND      NSTANP         N   N  N  N000N0000000N000000N   NO/ON      N          N999999NNONN        N                                        N0N0N0000000N000000000000
S006      1NNBNCOMMUNION GLASS               N                              NAN650    N      NSAND      NSTANP         N   N  N  N000N0000000N000000N   NO/ON      N          N999999NNONN        N                                        N0N0N0000000N000000000000
SS01      1NNBNATTENDANCE PERFECT CERTIFICATEN                              NAN439    N      NSAND      NSTANP         N   N  N  N000N0000000N000000N   NO/ON      N          N999999NNONN        N                                        N0N0N0000000N000000000000
SS02      1NNBNATTENDANCE CERTIFICATE        N                              NAN358    N      NSAND      NSTANP         N   N  N  N000N0000000N000000N   NO/ON      N          N999999NNONN        N                                        N0N0N0000000N000000000000
SS03      1NNBNBIRTHDAY ROLL CARDS (PACK OF 5N                              NAN927    N      NSAND      NSTANP         N   N  N  N000N0000000N000000N   NO/ON      N          N999999NNONN        N                                        N0N0N0000000N000000000000
SS04      1NNBNCLASS REGISTRATION ATTENDANCE N                              NAN195    N      NSAND      NSTANP         N   N  N  N000N0000000N000000N   NO/ON      N          N999999NNONN        N                                        N0N0N0000000N000000000000
SS05      1NNBNCHURCH ATTENDANCE CARDS BLUE (N                              NAN293    N      NSAND      NSTANP         N   N  N  N000N0000000N000000N   NO/ON      N          N999999NNONN        N                                        N0N0N0000000N000000000000
SS06      1NNBNCHURCH ATTENDANCE CARDS RED (PN                              NAN293    N      NSAND      NSTANP         N   N  N  N000N0000000N000000N   NO/ON      N          N999999NNONN        N                                        N0N0N0000000N000000000000
SS07      1NNBNPRIZE LABELS (PACK OF 50)     N                              NAN764    N      NSAND      NSTANP         N   N  N  N000N0000000N000000N   NO/ON      N          N999999NNONN        N                                        N0N0N0000000N000000000000
SS08      1NNBNPROMISE CARDS (PACK OF 10)    N                              NAN439    N      NSAND      NSTANP         N   N  N  N000N0000000N000000N   NO/ON      N          N999999NNONN        N                                        N0N0N0000000N000000000000
SS09      1NNBNPROMOTION CERTIFICATE         N                              NAN358    N      NSAND      NSTANP         N   N  N  N000N0000000N000000N   NO/ON      N          N999999NNONN        N                                        N0N0N0000000N000000000000
SS10      1NNBNSUNDAY SCHOOL ROLL BOOK 54 NAMN                              NAN358    N      NSAND      NSTANP         N   N  N  N000N0000000N000000N   NO/ON      N          N999999NNONN        N                                        N0N0N0000000N000000000000
SS11      1NNBNSUNDAY SCHOOL ROLL BOOK 105 NAN                              NAN439    N      NSAND      NSTANP         N   N  N  N000N0000000N000000N   NO/ON      N          N999999NNONN        N                                        N0N0N0000000N000000000000
